{
  "contractName": "CrdSet",
  "abi": [
    {
      "constant": true,
      "inputs": [
        {
          "name": "",
          "type": "uint256"
        }
      ],
      "name": "list",
      "outputs": [
        {
          "name": "",
          "type": "address"
        }
      ],
      "payable": false,
      "stateMutability": "view",
      "type": "function"
    },
    {
      "anonymous": false,
      "inputs": [
        {
          "indexed": true,
          "name": "c",
          "type": "address"
        }
      ],
      "name": "newContract",
      "type": "event"
    },
    {
      "constant": false,
      "inputs": [
        {
          "name": "total",
          "type": "uint256"
        },
        {
          "name": "content",
          "type": "string"
        }
      ],
      "name": "createCC",
      "outputs": [
        {
          "name": "",
          "type": "address"
        }
      ],
      "payable": true,
      "stateMutability": "payable",
      "type": "function"
    },
    {
      "constant": true,
      "inputs": [],
      "name": "getContracCount",
      "outputs": [
        {
          "name": "",
          "type": "uint256"
        }
      ],
      "payable": false,
      "stateMutability": "view",
      "type": "function"
    }
  ],
  "bytecode": "0x608060405234801561001057600080fd5b50611bb5806100206000396000f3fe608060405260043610610057576000357c0100000000000000000000000000000000000000000000000000000000900463ffffffff16806338bcf7b41461005c5780637702471f1461016157806380c9419e1461018c575b600080fd5b61011f6004803603604081101561007257600080fd5b81019080803590602001909291908035906020019064010000000081111561009957600080fd5b8201836020820111156100ab57600080fd5b803590602001918460018302840111640100000000831117156100cd57600080fd5b91908080601f016020809104026020016040519081016040528093929190818152602001838380828437600081840152601f19601f820116905080830192505050505050509192919290505050610207565b604051808273ffffffffffffffffffffffffffffffffffffffff1673ffffffffffffffffffffffffffffffffffffffff16815260200191505060405180910390f35b34801561016d57600080fd5b506101766104ae565b6040518082815260200191505060405180910390f35b34801561019857600080fd5b506101c5600480360360208110156101af57600080fd5b81019080803590602001909291905050506104ba565b604051808273ffffffffffffffffffffffffffffffffffffffff1673ffffffffffffffffffffffffffffffffffffffff16815260200191505060405180910390f35b600080833481151561021557fe5b061415156102d7576040517f08c379a00000000000000000000000000000000000000000000000000000000081526004018080602001828103825260438152602001807f416d6f756e74206f66206d6f6e6579206e65656420746f20626520646976696481526020017f61626c652062792074686520746f74616c206e756d626572206f6620616e737781526020017f657273000000000000000000000000000000000000000000000000000000000081525060600191505060405180910390fd5b6000338484346102e56104f8565b808573ffffffffffffffffffffffffffffffffffffffff1673ffffffffffffffffffffffffffffffffffffffff16815260200184815260200180602001838152602001828103825284818151815260200191508051906020019080838360005b83811015610360578082015181840152602081019050610345565b50505050905090810190601f16801561038d5780820380516001836020036101000a031916815260200191505b5095505050505050604051809103906000f0801580156103b1573d6000803e3d6000fd5b50905060008190806001815401808255809150509060018203906000526020600020016000909192909190916101000a81548173ffffffffffffffffffffffffffffffffffffffff021916908373ffffffffffffffffffffffffffffffffffffffff160217905550508073ffffffffffffffffffffffffffffffffffffffff166108fc349081150290604051600060405180830381858888f19350505050158015610460573d6000803e3d6000fd5b508073ffffffffffffffffffffffffffffffffffffffff167f6837ff1e738d95fc8bb5f12ce1513f42866f6c59c226c77342c4f36a1958ea1060405160405180910390a28091505092915050565b60008080549050905090565b6000818154811015156104c957fe5b906000526020600020016000915054906101000a900473ffffffffffffffffffffffffffffffffffffffff1681565b604051611681806105098339019056fe608060405260006005556040516200168138038062001681833981018060405260808110156200002e57600080fd5b81019080805190602001909291908051906020019092919080516401000000008111156200005b57600080fd5b828101905060208101848111156200007257600080fd5b81518560018202830111640100000000821117156200009057600080fd5b50509291906020018051906020019092919050505060008382811515620000b357fe5b06141515620000c157600080fd5b836000806101000a81548173ffffffffffffffffffffffffffffffffffffffff021916908373ffffffffffffffffffffffffffffffffffffffff160217905550826002819055508060038190555081600490805190602001906200012792919062000132565b5050505050620001e1565b828054600181600116156101000203166002900490600052602060002090601f016020900481019282601f106200017557805160ff1916838001178555620001a6565b82800160010185558215620001a6579182015b82811115620001a557825182559160200191906001019062000188565b5b509050620001b59190620001b9565b5090565b620001de91905b80821115620001da576000816000905550600101620001c0565b5090565b90565b61149080620001f16000396000f3fe6080604052600436106100f1576000357c0100000000000000000000000000000000000000000000000000000000900463ffffffff16806307da68f5146100f35780631b3f48421461010a57806324f2bd991461011457806359016c79146101435780636ded82f8146101d3578063775a25e31461023c5780637cde27b31461026757806398313096146102f75780639f005920146103c1578063a340cf7914610405578063a695066e1461046e578063ab0da5a9146104e9578063b2a4a50e1461052d578063b2bdfa7b146105b3578063d321fe291461060a578063e361112a14610635578063e804968d14610664575b005b3480156100ff57600080fd5b5061010861068f565b005b610112610703565b005b34801561012057600080fd5b50610129610735565b604051808215151515815260200191505060405180910390f35b34801561014f57600080fd5b50610158610789565b6040518080602001828103825283818151815260200191508051906020019080838360005b8381101561019857808201518184015260208101905061017d565b50505050905090810190601f1680156101c55780820380516001836020036101000a031916815260200191505b509250505060405180910390f35b3480156101df57600080fd5b50610222600480360360208110156101f657600080fd5b81019080803573ffffffffffffffffffffffffffffffffffffffff16906020019092919050505061082b565b604051808215151515815260200191505060405180910390f35b34801561024857600080fd5b50610251610881565b6040518082815260200191505060405180910390f35b34801561027357600080fd5b5061027c61088b565b6040518080602001828103825283818151815260200191508051906020019080838360005b838110156102bc5780820151818401526020810190506102a1565b50505050905090810190601f1680156102e95780820380516001836020036101000a031916815260200191505b509250505060405180910390f35b34801561030357600080fd5b506103466004803603602081101561031a57600080fd5b81019080803573ffffffffffffffffffffffffffffffffffffffff1690602001909291905050506109df565b6040518080602001828103825283818151815260200191508051906020019080838360005b8381101561038657808201518184015260208101905061036b565b50505050905090810190601f1680156103b35780820380516001836020036101000a031916815260200191505b509250505060405180910390f35b610403600480360360208110156103d757600080fd5b81019080803573ffffffffffffffffffffffffffffffffffffffff169060200190929190505050610b1b565b005b34801561041157600080fd5b506104546004803603602081101561042857600080fd5b81019080803573ffffffffffffffffffffffffffffffffffffffff169060200190929190505050610d8a565b604051808215151515815260200191505060405180910390f35b34801561047a57600080fd5b506104a76004803603602081101561049157600080fd5b8101908080359060200190929190505050610daa565b604051808273ffffffffffffffffffffffffffffffffffffffff1673ffffffffffffffffffffffffffffffffffffffff16815260200191505060405180910390f35b61052b600480360360208110156104ff57600080fd5b81019080803573ffffffffffffffffffffffffffffffffffffffff169060200190929190505050610e58565b005b34801561053957600080fd5b506105b16004803603602081101561055057600080fd5b810190808035906020019064010000000081111561056d57600080fd5b82018360208201111561057f57600080fd5b803590602001918460018302840111640100000000831117156105a157600080fd5b90919293919293905050506110ae565b005b3480156105bf57600080fd5b506105c861129d565b604051808273ffffffffffffffffffffffffffffffffffffffff1673ffffffffffffffffffffffffffffffffffffffff16815260200191505060405180910390f35b34801561061657600080fd5b5061061f6112c2565b6040518082815260200191505060405180910390f35b34801561064157600080fd5b5061064a6112cc565b604051808215151515815260200191505060405180910390f35b34801561067057600080fd5b506106796112da565b6040518082815260200191505060405180910390f35b6000809054906101000a900473ffffffffffffffffffffffffffffffffffffffff1673ffffffffffffffffffffffffffffffffffffffff163373ffffffffffffffffffffffffffffffffffffffff161415156106ea57600080fd5b3373ffffffffffffffffffffffffffffffffffffffff16ff5b6000600254600354340181151561071657fe5b0614151561072357600080fd5b34600360008282540192505081905550565b6000600860003373ffffffffffffffffffffffffffffffffffffffff1673ffffffffffffffffffffffffffffffffffffffff16815260200190815260200160002060009054906101000a900460ff16905090565b606060048054600181600116156101000203166002900480601f0160208091040260200160405190810160405280929190818152602001828054600181600116156101000203166002900480156108215780601f106107f657610100808354040283529160200191610821565b820191906000526020600020905b81548152906001019060200180831161080457829003601f168201915b5050505050905090565b6000600860008373ffffffffffffffffffffffffffffffffffffffff1673ffffffffffffffffffffffffffffffffffffffff16815260200190815260200160002060009054906101000a900460ff169050919050565b6000600254905090565b60606000600960003373ffffffffffffffffffffffffffffffffffffffff1673ffffffffffffffffffffffffffffffffffffffff168152602001908152602001600020805460018160011615610100020316600290049050141561090157602060405190810160405280600081525090506109dc565b600960003373ffffffffffffffffffffffffffffffffffffffff1673ffffffffffffffffffffffffffffffffffffffff1681526020019081526020016000208054600181600116156101000203166002900480601f0160208091040260200160405190810160405280929190818152602001828054600181600116156101000203166002900480156109d45780601f106109a9576101008083540402835291602001916109d4565b820191906000526020600020905b8154815290600101906020018083116109b757829003601f168201915b505050505090505b90565b60606000809054906101000a900473ffffffffffffffffffffffffffffffffffffffff1673ffffffffffffffffffffffffffffffffffffffff163373ffffffffffffffffffffffffffffffffffffffff16141515610a3c57600080fd5b600960008373ffffffffffffffffffffffffffffffffffffffff1673ffffffffffffffffffffffffffffffffffffffff1681526020019081526020016000208054600181600116156101000203166002900480601f016020809104026020016040519081016040528092919081815260200182805460018160011615610100020316600290048015610b0f5780601f10610ae457610100808354040283529160200191610b0f565b820191906000526020600020905b815481529060010190602001808311610af257829003601f168201915b50505050509050919050565b6000809054906101000a900473ffffffffffffffffffffffffffffffffffffffff1673ffffffffffffffffffffffffffffffffffffffff163373ffffffffffffffffffffffffffffffffffffffff16141515610b7657600080fd5b600860008273ffffffffffffffffffffffffffffffffffffffff1673ffffffffffffffffffffffffffffffffffffffff16815260200190815260200160002060009054906101000a900460ff16151515610bcf57600080fd5b73__Set___________________________________63fe6949e3600a836040518363ffffffff167c0100000000000000000000000000000000000000000000000000000000028152600401808381526020018273ffffffffffffffffffffffffffffffffffffffff1673ffffffffffffffffffffffffffffffffffffffff1681526020019250505060206040518083038186803b158015610c6f57600080fd5b505af4158015610c83573d6000803e3d6000fd5b505050506040513d6020811015610c9957600080fd5b81019080805190602001909291905050501515610cb557600080fd5b600254600554101515610cc757600080fd5b6001600860008373ffffffffffffffffffffffffffffffffffffffff1673ffffffffffffffffffffffffffffffffffffffff16815260200190815260200160002060006101000a81548160ff0219169083151502179055506005600081548092919060010191905055508073ffffffffffffffffffffffffffffffffffffffff166108fc600254600354811515610d5a57fe5b049081150290604051600060405180830381858888f19350505050158015610d86573d6000803e3d6000fd5b5050565b60086020528060005260406000206000915054906101000a900460ff1681565b60008060009054906101000a900473ffffffffffffffffffffffffffffffffffffffff1673ffffffffffffffffffffffffffffffffffffffff163373ffffffffffffffffffffffffffffffffffffffff16141515610e0757600080fd5b60075482101515610e1757600080fd5b600682815481101515610e2657fe5b9060005260206000200160009054906101000a900473ffffffffffffffffffffffffffffffffffffffff169050919050565b6000809054906101000a900473ffffffffffffffffffffffffffffffffffffffff1673ffffffffffffffffffffffffffffffffffffffff163373ffffffffffffffffffffffffffffffffffffffff16141515610eb357600080fd5b600860008273ffffffffffffffffffffffffffffffffffffffff1673ffffffffffffffffffffffffffffffffffffffff16815260200190815260200160002060009054906101000a900460ff16151515610f0c57600080fd5b73__Set___________________________________63fe6949e3600a836040518363ffffffff167c0100000000000000000000000000000000000000000000000000000000028152600401808381526020018273ffffffffffffffffffffffffffffffffffffffff1673ffffffffffffffffffffffffffffffffffffffff1681526020019250505060206040518083038186803b158015610fac57600080fd5b505af4158015610fc0573d6000803e3d6000fd5b505050506040513d6020811015610fd657600080fd5b81019080805190602001909291905050501515610ff257600080fd5b60025460055410151561100457600080fd5b8073ffffffffffffffffffffffffffffffffffffffff167f86b7da2fff6e4d41b0e0fa181dca536a22c1724e8f7098a112f9064d63e5981860405160405180910390a26020604051908101604052806000815250600960008373ffffffffffffffffffffffffffffffffffffffff1673ffffffffffffffffffffffffffffffffffffffff16815260200190815260200160002090805190602001906110aa92919061133f565b5050565b8181600960003373ffffffffffffffffffffffffffffffffffffffff1673ffffffffffffffffffffffffffffffffffffffff16815260200190815260200160002091906110fc9291906113bf565b5060063390806001815401808255809150509060018203906000526020600020016000909192909190916101000a81548173ffffffffffffffffffffffffffffffffffffffff021916908373ffffffffffffffffffffffffffffffffffffffff1602179055505073__Set___________________________________635df0a15c600a336040518363ffffffff167c0100000000000000000000000000000000000000000000000000000000028152600401808381526020018273ffffffffffffffffffffffffffffffffffffffff1673ffffffffffffffffffffffffffffffffffffffff1681526020019250505060206040518083038186803b15801561120357600080fd5b505af4158015611217573d6000803e3d6000fd5b505050506040513d602081101561122d57600080fd5b810190808051906020019092919050505015611256576007600081548092919060010191905055505b3373ffffffffffffffffffffffffffffffffffffffff167f70beffe2bc35d59a84429eca382de4cb45a754d16f19a1aba764cb6595acf78960405160405180910390a25050565b6000809054906101000a900473ffffffffffffffffffffffffffffffffffffffff1681565b6000600354905090565b600060025460055410905090565b60008060009054906101000a900473ffffffffffffffffffffffffffffffffffffffff1673ffffffffffffffffffffffffffffffffffffffff163373ffffffffffffffffffffffffffffffffffffffff1614151561133757600080fd5b600754905090565b828054600181600116156101000203166002900490600052602060002090601f016020900481019282601f1061138057805160ff19168380011785556113ae565b828001600101855582156113ae579182015b828111156113ad578251825591602001919060010190611392565b5b5090506113bb919061143f565b5090565b828054600181600116156101000203166002900490600052602060002090601f016020900481019282601f1061140057803560ff191683800117855561142e565b8280016001018555821561142e579182015b8281111561142d578235825591602001919060010190611412565b5b50905061143b919061143f565b5090565b61146191905b8082111561145d576000816000905550600101611445565b5090565b9056fea165627a7a72305820bdd1d8940929a1b20ec8ac961fb638624a2b2c8941ab0607313df9d087093a130029a165627a7a7230582056fb63b3675ef17a17a517c813b277e8b0320aeeea5735a55a8f6bbd89a764770029",
  "source": "\n// File: contracts/Set.sol\n\npragma solidity ^0.5.0;\n\nlibrary Set {\n    // We define a new struct datatype that will be used to\n    // hold its data in the calling contract.\n    struct Data { \n        mapping(address => bool) flags;\n    }\n\n    // Note that the first parameter is of type \"storage\n    // reference\" and thus only its storage address and not\n    // its contents is passed as part of the call.  This is a\n    // special feature of library functions.  It is idiomatic\n    // to call the first parameter `self`, if the function can\n    // be seen as a method of that object.\n    function insert(Data storage self, address value)\n        public\n        returns (bool)\n    {\n        if (self.flags[value])\n            return false; // already there\n        self.flags[value] = true;\n        return true;\n    }\n\n    function remove(Data storage self, address value)\n        public\n        returns (bool)\n    {\n        if (!self.flags[value])\n            return false; // not there\n        self.flags[value] = false;\n        return true;\n    }\n\n    function contains(Data storage self, address value)\n        public\n        view\n        returns (bool)\n    {\n        return self.flags[value];\n    }\n}\n\n// File: contracts/Crowdsourcing.sol\n\npragma solidity ^0.5.0;\n\n\ncontract Crowdsourcing {\n    address public _owner;\n    string task;\n    uint private _total;\n    uint private _amount;\n    string private _content;\n    uint private _current  = 0;\n    address[] private workersArr;\n    uint private workerCount;\n    mapping(address => bool) public paid;\n    mapping(address => string) private answers;\n    Set.Data workers;\n    \n    event toVerification (\n        address indexed id\n    );\n    \n    event rejection (\n        address indexed rejected\n    );\n    \n    constructor(address owner, uint total, string memory content, uint money) public payable{\n        require(money % total == 0);\n        _owner = owner;\n        _total = total;\n        _amount = money;\n        _content = content;\n\n    }\n    \n    function getTotal() public view returns (uint) {\n        return _total;\n    }\n    \n    function getAmount() public view returns (uint) {\n        return _amount;\n    }\n    \n    function getContent() public view returns (string memory) {\n        return _content;\n    }\n\n    function isPaying() public view returns (bool) {\n        return _current  < _total;\n    }\n    \n    function getAnswers(address f) public view returns (string memory) {\n        require (msg.sender == _owner);\n        return answers[f];\n    }\n    \n    function addMoney() public payable {\n        require((msg.value + _amount) % _total == 0);\n        _amount += msg.value;\n    }\n    \n    // fallback function\n    function() external payable { }\n    \n    function stop() public {\n        require (msg.sender == _owner);\n        selfdestruct(msg.sender);\n    }\n    \n    function accept(address payable target) public payable {\n        require(msg.sender == _owner);\n        require(!paid[target]);\n        require(Set.contains(workers, target));\n        require(_current  < _total);\n        paid[target] = true;\n        _current ++;\n        target.transfer(_amount / _total);\n    }\n    \n    function reject(address payable target) public payable {\n        require(msg.sender == _owner);\n        require(!paid[target]);\n        require(Set.contains(workers, target));\n        require(_current  < _total);\n        emit rejection(target);\n        answers[target] = '';\n    }\n    \n    function answer(string calldata ans) external {\n        answers[msg.sender] = ans;\n        workersArr.push(msg.sender);\n        if (Set.insert(workers, msg.sender))\n        {\n            workerCount++;\n        }\n        emit toVerification(msg.sender);\n    }\n\n    function getWorkers(uint number) public view returns (address) {\n        require(msg.sender == _owner);\n        require(number < workerCount);\n        return workersArr[number];\n    }\n\n    function getNumberOfWorkers() public view returns (uint) {\n        require(msg.sender == _owner);\n        return workerCount;\n    }\n\n    function isPaid(address a) public view returns (bool) {\n        return paid[a];\n    }\n    \n    function myPay() public view returns (bool) {\n        return paid[msg.sender];\n    }\n    \n    function myAnswer() public view returns (string memory) {\n        if (bytes(answers[msg.sender]).length == 0) return \"\";\n        return answers[msg.sender];\n    }\n}\n\n// File: contracts/CrdSet-dev.sol\n\npragma solidity ^0.5.0;\n\n\ncontract CrdSet {\n    Crowdsourcing[] public list;\n    event newContract(Crowdsourcing indexed c);\n\n    function createCC(uint total, string memory content) public payable returns (Crowdsourcing){\n        require(msg.value % total == 0, \"Amount of money need to be dividable by the total number of answers\");\n        Crowdsourcing a = new Crowdsourcing(msg.sender, total, content, msg.value);\n        list.push(a);\n        address(a).transfer(msg.value);\n        emit newContract(a);\n        return a;\n    }\n    \n    function getContracCount() public view returns (uint) {\n        return list.length;\n    }\n    \n}\n",
  "sourcePath": "/Users/linhhoang/Documents/gatech/internet/group/project/src/crowdsourcing/contracts/CrdSet.sol",
  "compiler": {
    "name": "solc",
    "version": "0.5.0+commit.1d4f565a.Emscripten.clang"
  },
  "schemaVersion": "3.0.2",
  "updatedAt": "2019-03-18T01:18:49.877Z",
  "devdoc": {
    "methods": {}
  },
  "userdoc": {
    "methods": {}
  }
}