{
  "contractName": "JobSet",
  "abi": [
    {
      "constant": true,
      "inputs": [
        {
          "name": "",
          "type": "uint256"
        }
      ],
      "name": "jobs",
      "outputs": [
        {
          "name": "",
          "type": "address"
        }
      ],
      "payable": false,
      "stateMutability": "view",
      "type": "function",
      "signature": "0x180aedf3"
    },
    {
      "anonymous": false,
      "inputs": [
        {
          "indexed": true,
          "name": "c",
          "type": "address"
        }
      ],
      "name": "newContract",
      "type": "event",
      "signature": "0x6837ff1e738d95fc8bb5f12ce1513f42866f6c59c226c77342c4f36a1958ea10"
    },
    {
      "constant": false,
      "inputs": [
        {
          "name": "workerCount",
          "type": "uint256"
        },
        {
          "name": "content",
          "type": "string"
        }
      ],
      "name": "createCC",
      "outputs": [
        {
          "name": "",
          "type": "address"
        }
      ],
      "payable": true,
      "stateMutability": "payable",
      "type": "function",
      "signature": "0x38bcf7b4"
    },
    {
      "constant": true,
      "inputs": [],
      "name": "getContracCount",
      "outputs": [
        {
          "name": "",
          "type": "uint256"
        }
      ],
      "payable": false,
      "stateMutability": "view",
      "type": "function",
      "signature": "0x7702471f"
    }
  ],
  "bytecode": "0x608060405234801561001057600080fd5b50611b8f806100206000396000f3fe608060405260043610610057576000357c0100000000000000000000000000000000000000000000000000000000900463ffffffff168063180aedf31461005c57806338bcf7b4146100d75780637702471f146101dc575b600080fd5b34801561006857600080fd5b506100956004803603602081101561007f57600080fd5b8101908080359060200190929190505050610207565b604051808273ffffffffffffffffffffffffffffffffffffffff1673ffffffffffffffffffffffffffffffffffffffff16815260200191505060405180910390f35b61019a600480360360408110156100ed57600080fd5b81019080803590602001909291908035906020019064010000000081111561011457600080fd5b82018360208201111561012657600080fd5b8035906020019184600183028401116401000000008311171561014857600080fd5b91908080601f016020809104026020016040519081016040528093929190818152602001838380828437600081840152601f19601f820116905080830192505050505050509192919290505050610245565b604051808273ffffffffffffffffffffffffffffffffffffffff1673ffffffffffffffffffffffffffffffffffffffff16815260200191505060405180910390f35b3480156101e857600080fd5b506101f16104c6565b6040518082815260200191505060405180910390f35b60008181548110151561021657fe5b906000526020600020016000915054906101000a900473ffffffffffffffffffffffffffffffffffffffff1681565b600080833481151561025357fe5b061415156102ef576040517f08c379a000000000000000000000000000000000000000000000000000000000815260040180806020018281038252603f8152602001807f546f74616c207265776172642073686f756c64206265206576656e6c7920646981526020017f766964656420627920746865206e756d626572206f6620776f726b6572732e0081525060400191505060405180910390fd5b6000338484346102fd6104d2565b808573ffffffffffffffffffffffffffffffffffffffff1673ffffffffffffffffffffffffffffffffffffffff16815260200184815260200180602001838152602001828103825284818151815260200191508051906020019080838360005b8381101561037857808201518184015260208101905061035d565b50505050905090810190601f1680156103a55780820380516001836020036101000a031916815260200191505b5095505050505050604051809103906000f0801580156103c9573d6000803e3d6000fd5b50905060008190806001815401808255809150509060018203906000526020600020016000909192909190916101000a81548173ffffffffffffffffffffffffffffffffffffffff021916908373ffffffffffffffffffffffffffffffffffffffff160217905550508073ffffffffffffffffffffffffffffffffffffffff166108fc349081150290604051600060405180830381858888f19350505050158015610478573d6000803e3d6000fd5b508073ffffffffffffffffffffffffffffffffffffffff167f6837ff1e738d95fc8bb5f12ce1513f42866f6c59c226c77342c4f36a1958ea1060405160405180910390a28091505092915050565b60008080549050905090565b604051611681806104e38339019056fe608060405260006004556040516200168138038062001681833981018060405260808110156200002e57600080fd5b81019080805190602001909291908051906020019092919080516401000000008111156200005b57600080fd5b828101905060208101848111156200007257600080fd5b81518560018202830111640100000000821117156200009057600080fd5b50509291906020018051906020019092919050505060008382811515620000b357fe5b06141515620000c157600080fd5b836000806101000a81548173ffffffffffffffffffffffffffffffffffffffff021916908373ffffffffffffffffffffffffffffffffffffffff160217905550826001819055508060028190555081600390805190602001906200012792919062000132565b5050505050620001e1565b828054600181600116156101000203166002900490600052602060002090601f016020900481019282601f106200017557805160ff1916838001178555620001a6565b82800160010185558215620001a6579182015b82811115620001a557825182559160200191906001019062000188565b5b509050620001b59190620001b9565b5090565b620001de91905b80821115620001da576000816000905550600101620001c0565b5090565b90565b61149080620001f16000396000f3fe6080604052600436106100f1576000357c0100000000000000000000000000000000000000000000000000000000900463ffffffff16806307da68f5146100f3578063152be0101461010a5780631b3f48421461016157806324f2bd991461016b57806359016c791461019a5780636ded82f81461022a578063775a25e3146102935780637cde27b3146102be578063983130961461034e5780639f00592014610418578063a340cf791461045c578063a695066e146104c5578063ab0da5a914610540578063b2a4a50e14610584578063d321fe291461060a578063e361112a14610635578063e804968d14610664575b005b3480156100ff57600080fd5b5061010861068f565b005b34801561011657600080fd5b5061011f610703565b604051808273ffffffffffffffffffffffffffffffffffffffff1673ffffffffffffffffffffffffffffffffffffffff16815260200191505060405180910390f35b610169610728565b005b34801561017757600080fd5b5061018061075a565b604051808215151515815260200191505060405180910390f35b3480156101a657600080fd5b506101af6107ae565b6040518080602001828103825283818151815260200191508051906020019080838360005b838110156101ef5780820151818401526020810190506101d4565b50505050905090810190601f16801561021c5780820380516001836020036101000a031916815260200191505b509250505060405180910390f35b34801561023657600080fd5b506102796004803603602081101561024d57600080fd5b81019080803573ffffffffffffffffffffffffffffffffffffffff169060200190929190505050610850565b604051808215151515815260200191505060405180910390f35b34801561029f57600080fd5b506102a86108a6565b6040518082815260200191505060405180910390f35b3480156102ca57600080fd5b506102d36108b0565b6040518080602001828103825283818151815260200191508051906020019080838360005b838110156103135780820151818401526020810190506102f8565b50505050905090810190601f1680156103405780820380516001836020036101000a031916815260200191505b509250505060405180910390f35b34801561035a57600080fd5b5061039d6004803603602081101561037157600080fd5b81019080803573ffffffffffffffffffffffffffffffffffffffff169060200190929190505050610a04565b6040518080602001828103825283818151815260200191508051906020019080838360005b838110156103dd5780820151818401526020810190506103c2565b50505050905090810190601f16801561040a5780820380516001836020036101000a031916815260200191505b509250505060405180910390f35b61045a6004803603602081101561042e57600080fd5b81019080803573ffffffffffffffffffffffffffffffffffffffff169060200190929190505050610b40565b005b34801561046857600080fd5b506104ab6004803603602081101561047f57600080fd5b81019080803573ffffffffffffffffffffffffffffffffffffffff169060200190929190505050610daf565b604051808215151515815260200191505060405180910390f35b3480156104d157600080fd5b506104fe600480360360208110156104e857600080fd5b8101908080359060200190929190505050610dcf565b604051808273ffffffffffffffffffffffffffffffffffffffff1673ffffffffffffffffffffffffffffffffffffffff16815260200191505060405180910390f35b6105826004803603602081101561055657600080fd5b81019080803573ffffffffffffffffffffffffffffffffffffffff169060200190929190505050610e7d565b005b34801561059057600080fd5b50610608600480360360208110156105a757600080fd5b81019080803590602001906401000000008111156105c457600080fd5b8201836020820111156105d657600080fd5b803590602001918460018302840111640100000000831117156105f857600080fd5b90919293919293905050506110d3565b005b34801561061657600080fd5b5061061f6112c2565b6040518082815260200191505060405180910390f35b34801561064157600080fd5b5061064a6112cc565b604051808215151515815260200191505060405180910390f35b34801561067057600080fd5b506106796112da565b6040518082815260200191505060405180910390f35b6000809054906101000a900473ffffffffffffffffffffffffffffffffffffffff1673ffffffffffffffffffffffffffffffffffffffff163373ffffffffffffffffffffffffffffffffffffffff161415156106ea57600080fd5b3373ffffffffffffffffffffffffffffffffffffffff16ff5b6000809054906101000a900473ffffffffffffffffffffffffffffffffffffffff1681565b6000600154600254340181151561073b57fe5b0614151561074857600080fd5b34600260008282540192505081905550565b6000600760003373ffffffffffffffffffffffffffffffffffffffff1673ffffffffffffffffffffffffffffffffffffffff16815260200190815260200160002060009054906101000a900460ff16905090565b606060038054600181600116156101000203166002900480601f0160208091040260200160405190810160405280929190818152602001828054600181600116156101000203166002900480156108465780601f1061081b57610100808354040283529160200191610846565b820191906000526020600020905b81548152906001019060200180831161082957829003601f168201915b5050505050905090565b6000600760008373ffffffffffffffffffffffffffffffffffffffff1673ffffffffffffffffffffffffffffffffffffffff16815260200190815260200160002060009054906101000a900460ff169050919050565b6000600154905090565b60606000600860003373ffffffffffffffffffffffffffffffffffffffff1673ffffffffffffffffffffffffffffffffffffffff16815260200190815260200160002080546001816001161561010002031660029004905014156109265760206040519081016040528060008152509050610a01565b600860003373ffffffffffffffffffffffffffffffffffffffff1673ffffffffffffffffffffffffffffffffffffffff1681526020019081526020016000208054600181600116156101000203166002900480601f0160208091040260200160405190810160405280929190818152602001828054600181600116156101000203166002900480156109f95780601f106109ce576101008083540402835291602001916109f9565b820191906000526020600020905b8154815290600101906020018083116109dc57829003601f168201915b505050505090505b90565b60606000809054906101000a900473ffffffffffffffffffffffffffffffffffffffff1673ffffffffffffffffffffffffffffffffffffffff163373ffffffffffffffffffffffffffffffffffffffff16141515610a6157600080fd5b600860008373ffffffffffffffffffffffffffffffffffffffff1673ffffffffffffffffffffffffffffffffffffffff1681526020019081526020016000208054600181600116156101000203166002900480601f016020809104026020016040519081016040528092919081815260200182805460018160011615610100020316600290048015610b345780601f10610b0957610100808354040283529160200191610b34565b820191906000526020600020905b815481529060010190602001808311610b1757829003601f168201915b50505050509050919050565b6000809054906101000a900473ffffffffffffffffffffffffffffffffffffffff1673ffffffffffffffffffffffffffffffffffffffff163373ffffffffffffffffffffffffffffffffffffffff16141515610b9b57600080fd5b600760008273ffffffffffffffffffffffffffffffffffffffff1673ffffffffffffffffffffffffffffffffffffffff16815260200190815260200160002060009054906101000a900460ff16151515610bf457600080fd5b73__Set___________________________________63fe6949e36009836040518363ffffffff167c0100000000000000000000000000000000000000000000000000000000028152600401808381526020018273ffffffffffffffffffffffffffffffffffffffff1673ffffffffffffffffffffffffffffffffffffffff1681526020019250505060206040518083038186803b158015610c9457600080fd5b505af4158015610ca8573d6000803e3d6000fd5b505050506040513d6020811015610cbe57600080fd5b81019080805190602001909291905050501515610cda57600080fd5b600154600454101515610cec57600080fd5b6001600760008373ffffffffffffffffffffffffffffffffffffffff1673ffffffffffffffffffffffffffffffffffffffff16815260200190815260200160002060006101000a81548160ff0219169083151502179055506004600081548092919060010191905055508073ffffffffffffffffffffffffffffffffffffffff166108fc600154600254811515610d7f57fe5b049081150290604051600060405180830381858888f19350505050158015610dab573d6000803e3d6000fd5b5050565b60076020528060005260406000206000915054906101000a900460ff1681565b60008060009054906101000a900473ffffffffffffffffffffffffffffffffffffffff1673ffffffffffffffffffffffffffffffffffffffff163373ffffffffffffffffffffffffffffffffffffffff16141515610e2c57600080fd5b60065482101515610e3c57600080fd5b600582815481101515610e4b57fe5b9060005260206000200160009054906101000a900473ffffffffffffffffffffffffffffffffffffffff169050919050565b6000809054906101000a900473ffffffffffffffffffffffffffffffffffffffff1673ffffffffffffffffffffffffffffffffffffffff163373ffffffffffffffffffffffffffffffffffffffff16141515610ed857600080fd5b600760008273ffffffffffffffffffffffffffffffffffffffff1673ffffffffffffffffffffffffffffffffffffffff16815260200190815260200160002060009054906101000a900460ff16151515610f3157600080fd5b73__Set___________________________________63fe6949e36009836040518363ffffffff167c0100000000000000000000000000000000000000000000000000000000028152600401808381526020018273ffffffffffffffffffffffffffffffffffffffff1673ffffffffffffffffffffffffffffffffffffffff1681526020019250505060206040518083038186803b158015610fd157600080fd5b505af4158015610fe5573d6000803e3d6000fd5b505050506040513d6020811015610ffb57600080fd5b8101908080519060200190929190505050151561101757600080fd5b60015460045410151561102957600080fd5b8073ffffffffffffffffffffffffffffffffffffffff167f86b7da2fff6e4d41b0e0fa181dca536a22c1724e8f7098a112f9064d63e5981860405160405180910390a26020604051908101604052806000815250600860008373ffffffffffffffffffffffffffffffffffffffff1673ffffffffffffffffffffffffffffffffffffffff16815260200190815260200160002090805190602001906110cf92919061133f565b5050565b8181600860003373ffffffffffffffffffffffffffffffffffffffff1673ffffffffffffffffffffffffffffffffffffffff16815260200190815260200160002091906111219291906113bf565b5060053390806001815401808255809150509060018203906000526020600020016000909192909190916101000a81548173ffffffffffffffffffffffffffffffffffffffff021916908373ffffffffffffffffffffffffffffffffffffffff1602179055505073__Set___________________________________635df0a15c6009336040518363ffffffff167c0100000000000000000000000000000000000000000000000000000000028152600401808381526020018273ffffffffffffffffffffffffffffffffffffffff1673ffffffffffffffffffffffffffffffffffffffff1681526020019250505060206040518083038186803b15801561122857600080fd5b505af415801561123c573d6000803e3d6000fd5b505050506040513d602081101561125257600080fd5b81019080805190602001909291905050501561127b576006600081548092919060010191905055505b3373ffffffffffffffffffffffffffffffffffffffff167f70beffe2bc35d59a84429eca382de4cb45a754d16f19a1aba764cb6595acf78960405160405180910390a25050565b6000600254905090565b600060015460045410905090565b60008060009054906101000a900473ffffffffffffffffffffffffffffffffffffffff1673ffffffffffffffffffffffffffffffffffffffff163373ffffffffffffffffffffffffffffffffffffffff1614151561133757600080fd5b600654905090565b828054600181600116156101000203166002900490600052602060002090601f016020900481019282601f1061138057805160ff19168380011785556113ae565b828001600101855582156113ae579182015b828111156113ad578251825591602001919060010190611392565b5b5090506113bb919061143f565b5090565b828054600181600116156101000203166002900490600052602060002090601f016020900481019282601f1061140057803560ff191683800117855561142e565b8280016001018555821561142e579182015b8281111561142d578235825591602001919060010190611412565b5b50905061143b919061143f565b5090565b61146191905b8082111561145d576000816000905550600101611445565b5090565b9056fea165627a7a723058201948531d97cb3e7a76e166cdb567d044d06793719a98ee9f7915355feda2303e0029a165627a7a72305820a264fd93a1892c2a45edf443a5a65c73e51e4f37616c02216d59ca524908c0cc0029",
  "source": "pragma solidity ^0.5.0;\n\nlibrary Set {\n    // We define a new struct datatype that will be used to\n    // hold its data in the calling contract.\n    struct Data {\n        mapping(address => bool) flags;\n    }\n\n    // Note that the first parameter is of type \"storage\n    // reference\" and thus only its storage address and not\n    // its contents is passed as part of the call.  This is a\n    // special feature of library functions.  It is idiomatic\n    // to call the first parameter `self`, if the function can\n    // be seen as a method of that object.\n    function insert(Data storage self, address value)\n        public\n        returns (bool)\n    {\n        if (self.flags[value])\n            return false; // already there\n        self.flags[value] = true;\n        return true;\n    }\n\n    function remove(Data storage self, address value)\n        public\n        returns (bool)\n    {\n        if (!self.flags[value])\n            return false; // not there\n        self.flags[value] = false;\n        return true;\n    }\n\n    function contains(Data storage self, address value)\n        public\n        view\n        returns (bool)\n    {\n        return self.flags[value];\n    }\n}\n\ncontract Job {\n    address public _requester;\n    uint private _total;\n    uint private _amount;\n    string private _content;\n    uint private _current  = 0;\n    address[] private workersArr;\n    uint private workerCount;\n    mapping(address => bool) public paid;\n    mapping(address => string) private answers;\n    Set.Data workers;\n\n    event toVerification (\n        address indexed id\n    );\n\n    event rejection (\n        address indexed rejected\n    );\n\n    constructor(address requester, uint total, string memory content, uint money)\n        public\n        payable\n    {\n        require(money % total == 0);\n        _requester = requester;\n        _total = total;\n        _amount = money;\n        _content = content;\n\n    }\n\n    function getTotal()\n        public\n        view\n        returns (uint)\n    {\n        return _total;\n    }\n\n    function getAmount()\n        public\n        view\n        returns (uint)\n    {\n        return _amount;\n    }\n\n    function getContent()\n        public\n        view\n        returns (string memory)\n    {\n        return _content;\n    }\n\n    function isPaying()\n        public\n        view\n        returns (bool)\n    {\n        return _current  < _total;\n    }\n\n    function getAnswers(address f)\n        public\n        view\n        returns (string memory)\n    {\n        require (msg.sender == _requester);\n        return answers[f];\n    }\n\n    function addMoney()\n        public\n        payable\n    {\n        require((msg.value + _amount) % _total == 0);\n        _amount += msg.value;\n    }\n\n    // fallback function\n    function() external payable { }\n\n    function stop()\n        public\n    {\n        require (msg.sender == _requester);\n        selfdestruct(msg.sender);\n    }\n\n    function accept(address payable target)\n        public\n        payable\n    {\n        require(msg.sender == _requester);\n        require(!paid[target]);\n        require(Set.contains(workers, target));\n        require(_current  < _total);\n        paid[target] = true;\n        _current ++;\n        target.transfer(_amount / _total);\n    }\n\n    function reject(address payable target)\n        public\n        payable\n    {\n        require(msg.sender == _requester);\n        require(!paid[target]);\n        require(Set.contains(workers, target));\n        require(_current  < _total);\n        emit rejection(target);\n        answers[target] = '';\n    }\n\n    function answer(string calldata ans)\n        external\n    {\n        answers[msg.sender] = ans;\n        workersArr.push(msg.sender);\n        if (Set.insert(workers, msg.sender))\n            workerCount++;\n\n        emit toVerification(msg.sender);\n    }\n\n    function getWorkers(uint number)\n        public\n        view\n        returns (address)\n    {\n        require(msg.sender == _requester);\n        require(number < workerCount);\n        return workersArr[number];\n    }\n\n    function getNumberOfWorkers()\n        public\n        view\n        returns (uint)\n    {\n        require(msg.sender == _requester);\n        return workerCount;\n    }\n\n    function isPaid(address a)\n        public\n        view\n        returns (bool)\n    {\n        return paid[a];\n    }\n\n    function myPay()\n        public\n        view\n        returns (bool)\n    {\n        return paid[msg.sender];\n    }\n\n    function myAnswer()\n        public\n        view\n        returns (string memory)\n    {\n        if (bytes(answers[msg.sender]).length == 0)\n            return \"\";\n        return answers[msg.sender];\n    }\n}\n\ncontract JobSet {\n    Job[] public jobs;\n    event newContract(Job indexed c);\n\n    function createCC(uint workerCount, string memory content)\n        public\n        payable\n        returns (Job)\n    {\n        require(msg.value % workerCount == 0,\n            \"Total reward should be evenly divided by the number of workers.\");\n\n        Job job = new Job(msg.sender, workerCount, content, msg.value);\n        jobs.push(job);\n        address(job).transfer(msg.value);\n\n        emit newContract(job);\n        return job;\n    }\n\n    function getContracCount()\n        public\n        view\n        returns (uint)\n    {\n        return jobs.length;\n    }\n}\n",
  "sourcePath": "/Users/linhhoang/Documents/gatech/internet/group/project/src/crowdsourcing/contracts/Crowdsourcing.sol",
  "compiler": {
    "name": "solc",
    "version": "0.5.0+commit.1d4f565a.Emscripten.clang"
  },
  "schemaVersion": "3.0.2",
  "updatedAt": "2019-04-02T00:33:01.663Z",
  "devdoc": {
    "methods": {}
  },
  "userdoc": {
    "methods": {}
  }
}