{
  "contractName": "Set",
  "abi": [
    {
      "constant": false,
      "inputs": [
        {
          "name": "self",
          "type": "Set.Data storage"
        },
        {
          "name": "value",
          "type": "address"
        }
      ],
      "name": "insert",
      "outputs": [
        {
          "name": "",
          "type": "bool"
        }
      ],
      "payable": false,
      "stateMutability": "nonpayable",
      "type": "function",
      "signature": "0x5df0a15c"
    },
    {
      "constant": false,
      "inputs": [
        {
          "name": "self",
          "type": "Set.Data storage"
        },
        {
          "name": "value",
          "type": "address"
        }
      ],
      "name": "remove",
      "outputs": [
        {
          "name": "",
          "type": "bool"
        }
      ],
      "payable": false,
      "stateMutability": "nonpayable",
      "type": "function",
      "signature": "0x87402143"
    },
    {
      "constant": true,
      "inputs": [
        {
          "name": "self",
          "type": "Set.Data storage"
        },
        {
          "name": "value",
          "type": "address"
        }
      ],
      "name": "contains",
      "outputs": [
        {
          "name": "",
          "type": "bool"
        }
      ],
      "payable": false,
      "stateMutability": "view",
      "type": "function",
      "signature": "0xfe6949e3"
    }
  ],
  "bytecode": "0x6103cd610030600b82828239805160001a6073146000811461002057610022565bfe5b5030600052607381538281f3fe730000000000000000000000000000000000000000301460806040526004361061006e576000357c0100000000000000000000000000000000000000000000000000000000900463ffffffff1680635df0a15c1461007357806387402143146100e6578063fe6949e314610159575b600080fd5b81801561007f57600080fd5b506100cc6004803603604081101561009657600080fd5b8101908080359060200190929190803573ffffffffffffffffffffffffffffffffffffffff1690602001909291905050506101bf565b604051808215151515815260200191505060405180910390f35b8180156100f257600080fd5b5061013f6004803603604081101561010957600080fd5b8101908080359060200190929190803573ffffffffffffffffffffffffffffffffffffffff169060200190929190505050610283565b604051808215151515815260200191505060405180910390f35b6101a56004803603604081101561016f57600080fd5b8101908080359060200190929190803573ffffffffffffffffffffffffffffffffffffffff169060200190929190505050610348565b604051808215151515815260200191505060405180910390f35b60008260000160008373ffffffffffffffffffffffffffffffffffffffff1673ffffffffffffffffffffffffffffffffffffffff16815260200190815260200160002060009054906101000a900460ff161561021e576000905061027d565b60018360000160008473ffffffffffffffffffffffffffffffffffffffff1673ffffffffffffffffffffffffffffffffffffffff16815260200190815260200160002060006101000a81548160ff021916908315150217905550600190505b92915050565b60008260000160008373ffffffffffffffffffffffffffffffffffffffff1673ffffffffffffffffffffffffffffffffffffffff16815260200190815260200160002060009054906101000a900460ff1615156102e35760009050610342565b60008360000160008473ffffffffffffffffffffffffffffffffffffffff1673ffffffffffffffffffffffffffffffffffffffff16815260200190815260200160002060006101000a81548160ff021916908315150217905550600190505b92915050565b60008260000160008373ffffffffffffffffffffffffffffffffffffffff1673ffffffffffffffffffffffffffffffffffffffff16815260200190815260200160002060009054906101000a900460ff1690509291505056fea165627a7a72305820d1e67370b554282f23510c77b3d8a1b86e6505ed8b01fb4b97cc5ebcf115b3bc0029",
  "source": "pragma solidity ^0.5.0;\n\nlibrary Set {\n    // We define a new struct datatype that will be used to\n    // hold its data in the calling contract.\n    struct Data {\n        mapping(address => bool) flags;\n    }\n\n    // Note that the first parameter is of type \"storage\n    // reference\" and thus only its storage address and not\n    // its contents is passed as part of the call.  This is a\n    // special feature of library functions.  It is idiomatic\n    // to call the first parameter `self`, if the function can\n    // be seen as a method of that object.\n    function insert(Data storage self, address value)\n        public\n        returns (bool)\n    {\n        if (self.flags[value])\n            return false; // already there\n        self.flags[value] = true;\n        return true;\n    }\n\n    function remove(Data storage self, address value)\n        public\n        returns (bool)\n    {\n        if (!self.flags[value])\n            return false; // not there\n        self.flags[value] = false;\n        return true;\n    }\n\n    function contains(Data storage self, address value)\n        public\n        view\n        returns (bool)\n    {\n        return self.flags[value];\n    }\n}\n\ncontract Job {\n    address public _requester;\n    uint private _total;\n    uint private _amount;\n    string private _content;\n    uint private _current  = 0;\n    address[] private workersArr;\n    uint private workerCount;\n    mapping(address => bool) public paid;\n    mapping(address => string) private answers;\n    Set.Data workers;\n\n    event toVerification (\n        address indexed id\n    );\n\n    event rejection (\n        address indexed rejected\n    );\n\n    constructor(address requester, uint total, string memory content, uint money)\n        public\n        payable\n    {\n        require(money % total == 0);\n        _requester = requester;\n        _total = total;\n        _amount = money;\n        _content = content;\n\n    }\n\n    function getTotal()\n        public\n        view\n        returns (uint)\n    {\n        return _total;\n    }\n\n    function getAmount()\n        public\n        view\n        returns (uint)\n    {\n        return _amount;\n    }\n\n    function getContent()\n        public\n        view\n        returns (string memory)\n    {\n        return _content;\n    }\n\n    function isPaying()\n        public\n        view\n        returns (bool)\n    {\n        return _current  < _total;\n    }\n\n    function getAnswers(address f)\n        public\n        view\n        returns (string memory)\n    {\n        require (msg.sender == _requester);\n        return answers[f];\n    }\n\n    function addMoney()\n        public\n        payable\n    {\n        require((msg.value + _amount) % _total == 0);\n        _amount += msg.value;\n    }\n\n    // fallback function\n    function() external payable { }\n\n    function stop()\n        public\n    {\n        require (msg.sender == _requester);\n        selfdestruct(msg.sender);\n    }\n\n    function accept(address payable target)\n        public\n        payable\n    {\n        require(msg.sender == _requester);\n        require(!paid[target]);\n        require(Set.contains(workers, target));\n        require(_current  < _total);\n        paid[target] = true;\n        _current ++;\n        target.transfer(_amount / _total);\n    }\n\n    function reject(address payable target)\n        public\n        payable\n    {\n        require(msg.sender == _requester);\n        require(!paid[target]);\n        require(Set.contains(workers, target));\n        require(_current  < _total);\n        emit rejection(target);\n        answers[target] = '';\n    }\n\n    function answer(string calldata ans)\n        external\n    {\n        answers[msg.sender] = ans;\n        workersArr.push(msg.sender);\n        if (Set.insert(workers, msg.sender))\n            workerCount++;\n\n        emit toVerification(msg.sender);\n    }\n\n    function getWorkers(uint number)\n        public\n        view\n        returns (address)\n    {\n        require(msg.sender == _requester);\n        require(number < workerCount);\n        return workersArr[number];\n    }\n\n    function getNumberOfWorkers()\n        public\n        view\n        returns (uint)\n    {\n        require(msg.sender == _requester);\n        return workerCount;\n    }\n\n    function isPaid(address a)\n        public\n        view\n        returns (bool)\n    {\n        return paid[a];\n    }\n\n    function myPay()\n        public\n        view\n        returns (bool)\n    {\n        return paid[msg.sender];\n    }\n\n    function myAnswer()\n        public\n        view\n        returns (string memory)\n    {\n        if (bytes(answers[msg.sender]).length == 0)\n            return \"\";\n        return answers[msg.sender];\n    }\n}\n\ncontract JobSet {\n    Job[] public jobs;\n    event newContract(Job indexed c);\n\n    function createCC(uint workerCount, string memory content)\n        public\n        payable\n        returns (Job)\n    {\n        require(msg.value % workerCount == 0,\n            \"Total reward should be evenly divided by the number of workers.\");\n\n        Job job = new Job(msg.sender, workerCount, content, msg.value);\n        jobs.push(job);\n        address(job).transfer(msg.value);\n\n        emit newContract(job);\n        return job;\n    }\n\n    function getContracCount()\n        public\n        view\n        returns (uint)\n    {\n        return jobs.length;\n    }\n}\n",
  "sourcePath": "/Users/linhhoang/Documents/gatech/internet/group/project/src/crowdsourcing/contracts/Crowdsourcing.sol",
  "compiler": {
    "name": "solc",
    "version": "0.5.0+commit.1d4f565a.Emscripten.clang"
  },
  "schemaVersion": "3.0.2",
  "updatedAt": "2019-04-02T00:33:01.647Z",
  "devdoc": {
    "methods": {}
  },
  "userdoc": {
    "methods": {}
  }
}